8=FIX.4.2|9=144|35=D|34=1|49=Trader123|56=BrokerXYZ|52=20241210-16:30:00.123|11=Order12345|55=EUR/USD|54=1|38=100000|40=2|44=1.1050|59=0|60=20241210-16:29:59.456|10=211|
8=FIX.4.4|9=178|35=W|34=1|49=SenderCompID|56=TargetCompID|52=20241214-12:00:00.000|55=EUR/JPY|268=2|269=0|270=1.1234|271=500000|269=1|270=1.1242|271=600000|10=000|
8=FIX.4.4|9=178|35=W|34=2|49=SenderCompID|56=TargetCompID|52=20241214-12:00:00.000|55=USD/JPY|268=2|269=0|270=109.5678|271=700000|269=1|270=109.5789|271=800000|10=000|
